:100000000C9434000C9446000C9446000C9446006A
:100010000C9446000C9446000C9446000C94460048
:100020000C9446000C9446000C9446000C94460038
:100030000C9446000C9446000C9446000C94460028
:100040000C9446000C9446000C9446000C94460018
:100050000C9446000C9482000C9446000C944600CC
:100060000C9446000C94460011241FBECFEFD8E03C
:10007000DEBFCDBF21E0A0E0B1E001C01D92A23003
:10008000B207E1F70E945E000C9423010C9400007B
:10009000ECE7F0E0108280818064808380818F773C
:1000A0008083808180628083EAE7F0E01082808133
:1000B0008F60808380818068808308950E944800DB
:1000C0000E94CE007894ACE7B0E08C91887F866087
:1000D0008C93EAE7F0E080818064808383EC99E090
:1000E0000197F1F700C000008C91887F84608C93A9
:1000F00080818064808383EC99E00197F1F700C0F0
:100100000000E1CF1F920F920FB60F9211242F9390
:100110003F934F935F936F937F938F939F93AF938F
:10012000BF93EF93FF9380917C008770843081F4BC
:10013000809179008093000124EB829FC0011124FB
:100140006FEF70E00E94FB00862F0E94EE0010C04F
:10015000809179008093010124EB829FC0011124DA
:100160006FEF70E00E94FB008AE0860F0E94DF00C4
:10017000EAE7F0E0808180618083FF91EF91BF9199
:10018000AF919F918F917F916F915F914F913F912F
:100190002F910F900FBE0F901F90189584B1826021
:1001A00084B984B1846084B981EA80938000E1E8F5
:1001B000F0E088E08083808184608083089524EB70
:1001C000829FC00111246FEF70E00E94FB00665F08
:1001D0007F4F7093890060938800089524EB829F7D
:1001E000C00111246FEF70E00E94FB0070938B0040
:1001F00060938A00089597FB072E16F4009407D0A9
:1002000077FD09D00E940F0107FC05D03EF49095C0
:1002100081959F4F0895709561957F4F0895AA1B12
:10022000BB1B51E107C0AA1FBB1FA617B70710F0E1
:10023000A61BB70B881F991F5A95A9F78095909513
:0A024000BC01CD010895F894FFCF32
:00000001FF
